:1000000009C0BBC015C015C013C012C011C010C0BC
:100010000FC00EC011241FBECFE9CDBF20E0A0E667
:10002000B0E001C01D92A636B207E1F7E0D036C1BC
:10003000E7CF1F920F920FB60F9211242F936F9359
:100040007F938F939F9382EA82BF80916400813077
:1000500019F118F0823061F186C08091630081113E
:1000600003C081E08093630080916300809361000E
:10007000C09A809161008A95000000000000000095
:1000800000000000000000000000A9F7809361005C
:1000900084EC8A95F1F70AC0C09A88EC8A95F1F74A
:1000A00088EC8A95F1F788EC8A95F1F7C0985BC0E7
:1000B0008091600080936100C09A809161008A9570
:1000C0000000000000000000000000000000000030
:1000D0000000A9F78093610084EC8A95F1F7C0983D
:1000E0008091630064E1BAD08093630080916500E1
:1000F000811112C0809160002091630090E0821B0A
:10010000910997FF03C01092600019C080916000B0
:1001100090916300891B11C0209160008091630061
:1001200090E0820F911D893C910514F088EC05C088
:100130008091600090916300890F809360008091AE
:100140006000883C11F4109265008091600081117C
:1001500003C081E08093650080916000811103C03D
:1001600081E0809360009F918F917F916F912F919B
:100170000F900FBE0F901F9018951F920F920FB601
:100180000F9211248F939F93EF93FF93F8948FE234
:1001900095E70197F1F700C000008091630080931C
:1001A000620081E0809364001092610092E0B19956
:1001B00014C0809161008F5F80936100E7EBFBE0EA
:1001C0003197F1F700C0000080916100853678F327
:1001D0009093640010926100EACF7894FF91EF91C0
:1001E0009F918F910F900FBE0F901F901895B89A06
:1001F000C19A8BB780648BBF83B7846083BF89B794
:10020000826089BF86B1846886B9399A7894E5E0BE
:10021000F0E0369A369B07C084B195B1BF012AD071
:1002200060936300F7CF809162002091630090E0BB
:100230004E9630E08217930754F08091620020912F
:10024000630090E04E9730E02817390714F780914B
:1002500064008130F1F610926400DBCF991B79E0E5
:1002600004C0991F961708F0961B881F7A95C9F746
:1002700080950895AA1BBB1B51E107C0AA1FBB1F95
:10028000A617B70710F0A61BB70B881F991F5A9522
:10029000A9F780959095BC01CD010895F894FFCF02
:00000001FF
