:1000000009C0A6C015C015C013C012C011C010C0D1
:100010000FC00EC011241FBECFE9CDBF20E0A0E667
:10002000B0E001C01D92A636B207E1F7C9D01DC1EC
:10003000E7CF1F920F920FB60F9211242F936F9359
:100040007F938F939F9381EB82BF80916400813077
:10005000D1F038F0823009F071C0C09A109261007E
:100060001EC0C09A1092610090916100809163005F
:10007000981780F484E08A95F1F7809161008F5F92
:1000800080936100F1CFC09A88EC8A95F1F788ECF3
:100090008A95F1F788EC8A95F1F7C0984FC0909156
:1000A000610080916000981748F484E08A95F1F728
:1000B000809161008F5F80936100F1CF88EC8A9519
:1000C000F1F7C0988091630064E1AFD08093630042
:1000D00080916500811112C08091600020916300C1
:1000E00090E0821B910997FF03C01092600019C035
:1000F0008091600090916300891B11C02091600085
:100100008091630090E0820F911D893C910514F06D
:1001100088EC05C08091600090916300890F809306
:10012000600080916000883C11F41092650080911D
:100130006000811103C081E0809365009F918F91E1
:100140007F916F912F910F900FBE0F901F90189578
:100150001F920F920FB60F9211248F939F93EF93DC
:10016000FF93F8948FE295E70197F1F700C0000044
:10017000809163008093620081E08093640092E04C
:10018000B19914C0809161008F5F80936100E7EBAB
:10019000FBE03197F1F700C00000809161008536E7
:1001A00078F39093640010926100EACF7894FF9105
:1001B000EF919F918F910F900FBE0F901F90189508
:1001C000B89AC19A8BB780648BBF83B7846083BFB2
:1001D00089B7826089BF86B1846886B9399A789474
:1001E00025E030E0369A369B07C084B195B1B9015D
:1001F00028D060936300F7CF809162004091630044
:1002000090E0841B9109C3974CF440916200809167
:10021000630090E0840F911DC29724F780916400E1
:10022000813001F710926400DDCF991B79E004C0A2
:10023000991F961708F0961B881F7A95C9F7809525
:100240000895AA1BBB1B51E107C0AA1FBB1FA6171D
:10025000B70710F0A61BB70B881F991F5A95A9F76F
:0E02600080959095BC01CD010895F894FFCFD4
:00000001FF
